S00F000050726F6A6563742E737265633E
S11300000C9434000C9451000C9451000C94510045
S11300100C9451000C9451000C9451000C94510018
S11300200C9451000C9451000C9451000C94530006
S11300300C9451000C9451000C9451000C945100F8
S11300400C9451000C9451000C9451000C945100E8
S11300500C9451000C9451000C9451000C945100D8
S11300600C9451000C94510011241FBECFEFD8E022
S1130070DEBFCDBF11E0A0E0B1E0E4E1F6E002C0F4
S113008005900D92A030B107D9F721E0A0E0B1E0CE
S113009001C01D92AB32B207E1F70E948B000C94B1
S11300A008030C9400001F920F920FB60F921124B4
S11300B02F933F938F939F93AF93BF93EF93FF93AC
S11300C0E0E0F1E023E231E080819181892B91F03D
S11300D082819381009759F486818F5F868384811E
S11300E09581009739F001979383828303C0019728
S11300F0938382833796E217F30731F7FF91EF91E9
S1130100BF91AF919F918F913F912F910F900FBE0F
S11301100F901F9018950E94C1010E94B2010E9485
S1130120CF01FBCF88309105ECF4672B71F44AB111
S113013021E030E0B90102C0660F771F8A95E2F72B
S1130140CB01809584238AB908954AB121E030E037
S1130150B90102C0660F771F8A95E2F7CB01842BA1
S11301608AB90895672BB1F444B1877090789923C4
S113017024F40197886F9F6F019621E030E0B90164
S113018002C0660F771F8A95E2F7CB01809584231E
S113019084B9089544B187709078992324F4019721
S11301A0886F9F6F019621E030E0B90102C0660FAD
S11301B0771F8A95E2F7CB01842B84B908958830A0
S11301C09105ECF4672B71F44BB121E030E0B901F7
S11301D002C0660F771F8A95E2F7CB0180958423CE
S11301E08BB908954BB121E030E0B90102C0660F2C
S11301F0771F8A95E2F7CB01842B8BB90895672B7F
S1130200B1F445B187709078992324F40197886FED
S11302109F6F019621E030E0B90102C0660F771F9D
S11302208A95E2F7CB018095842385B9089545B179
S113023087709078992324F40197886F9F6F0196B3
S113024021E030E0B90102C0660F771F8A95E2F71A
S1130250CB01842B85B9089588309105B4F429B174
S113026087709078992324F40197886F9F6F019683
S113027041E050E0BA0102C0660F771F8A95E2F7A9
S1130280CB0130E082239323089523B187709078C3
S1130290992324F40197886F9F6F019641E050E001
S11302A0BA0102C0660F771F8A95E2F7CB0130E0EE
S11302B0822393230895BC01990F880B990B0E9404
S11302C00F0226E933E44BE05DE30E949B0220E049
S11302D030E040E05FE30E949B020E94D7017093EC
S11302E02A0160932901CB01089561E070E089E05F
S11302F090E00E94920060E070E08AE090E00E944A
S11303009200089560E070E089E090E00E94DF00D0
S113031083EF91E00197F1F700C0000061E070E025
S113032089E090E00E94DF0083EC99E00197F1F707
S113033000C0000060E070E089E090E00E94DF000F
S113034008958AE090E00E942C01BC01990F880B6B
S1130350990B609325017093260180932701909354
S1130360280108950E9475010E9482010E94A10142
S11303700E945B0190932A01809329018BE591E00F
S113038008951092C50083E38093C4001092C000C6
S113039088E18093C10086E08093C2000895E0EC78
S11303A0F0E0908195FFFDCF8093C60008950E94F0
S11303B0DE016894B1110C94950208950E947A02AA
S11303C088F09F5798F0B92F9927B751B0F0E1F012
S11303D0660F771F881F991F1AF0BA95C9F714C0C2
S11303E0B13091F00E949402B1E008950C9494020B
S11303F0672F782F8827B85F39F0B93FCCF38695FB
S113040077956795B395D9F73EF490958095709557
S113041061957F4F8F4F9F4F0895E89409C097FBD4
S11304203EF490958095709561957F4F8F4F9F4FC7
S11304309923A9F0F92F96E9BB279395F69587950B
S113044077956795B795F111F8CFFAF4BB0F11F4CE
S113045060FF1BC06F5F7F4F8F4F9F4F16C0882375
S113046011F096E911C0772321F09EE8872F762FAB
S113047005C0662371F096E8862F70E060E02AF0EC
S11304809A95660F771F881FDAF7880F96958795D8
S113049097F9089597F99F6780E870E060E0089500
S11304A09FEF80EC089500240A9416161706180688
S11304B00906089500240A94121613061406050664
S11304C00895092E0394000C11F4882352F0BB0FF5
S11304D040F4BF2B11F460FF04C06F5F7F4F8F4F58
S11304E09F4F089557FD9058440F551F59F05F3F93
S11304F071F04795880F97FB991F61F09F3F79F042
S113050087950895121613061406551FF2CF4695C3
S1130510F1DF08C0161617061806991FF1CF869545
S11305207105610508940895E894BB276627772729
S1130530CB0197F908950E94AE020C9461020E94C7
S1130540530238F00E945A0220F0952311F00C94C3
S11305504A020C94500211240C9495020E947202D7
S113056070F3959FC1F3950F50E0551F629FF00102
S1130570729FBB27F00DB11D639FAA27F00DB11D1B
S1130580AA1F649F6627B00DA11D661F829F2227A4
S1130590B00DA11D621F739FB00DA11D621F839F2B
S11305A0A00D611D221F749F3327A00D611D231F01
S11305B0849F600D211D822F762F6A2F11249F574F
S11305C050409AF0F1F088234AF0EE0FFF1FBB1F52
S11305D0661F771F881F91505040A9F79E3F510511
S11305E080F00C944A020C9495025F3FE4F3983E29
S11305F0D4F3869577956795B795F795E7959F5FBB
S1130600C1F7FE2B880F911D9695879597F908954C
S1070610F894FFCF88
S9030000FC
