:100000000C9434000C9451000C9451000C94510049
:100010000C9451000C9451000C9451000C9451001C
:100020000C9451000C9451000C9451000C9453000A
:100030000C9451000C9451000C9451000C945100FC
:100040000C9451000C9451000C9451000C945100EC
:100050000C9451000C9451000C9451000C945100DC
:100060000C9451000C94510011241FBECFEFD8E026
:10007000DEBFCDBF11E0A0E0B1E0E2E6F2E002C0F9
:1000800005900D92A030B107D9F721E0A0E0B1E0D2
:1000900001C01D92A332B207E1F70E948B000C94BD
:1000A0002F010C9400001F920F920FB60F92112493
:1000B0002F933F938F939F93AF93BF93EF93FF93B0
:1000C000E0E0F1E023E231E080819181892B91F041
:1000D00082819381009759F486818F5F8683848122
:1000E0009581009739F001979383828303C001972C
:1000F000938382833796E217F30731F7FF91EF91ED
:10010000BF91AF919F918F913F912F910F900FBE13
:100110000F901F9018950E94ED000E940C010E9404
:10012000190180E00E94F8000E9427012FEF83ED63
:1001300090E3215080409040E1F700C00000F1CFF3
:1001400088309105ECF4672B71F44AB121E030E07E
:10015000B90102C0660F771F8A95E2F7CB0180953F
:1001600084238AB908954AB121E030E0B90102C080
:10017000660F771F8A95E2F7CB01842B8AB9089521
:10018000672BB1F444B187709078992324F40197D8
:10019000886F9F6F019621E030E0B90102C0660FC1
:1001A000771F8A95E2F7CB018095842384B908955F
:1001B00044B187709078992324F40197886F9F6FDA
:1001C000019621E030E0B90102C0660F771F8A95E1
:1001D000E2F7CB01842B84B90895ECE7F0E080814D
:1001E00080648083EAE7F0E08081876880830895F7
:1001F000ECE7F0E09081907F8F70892B8083EAE7B5
:10020000F0E0808180648083808186FFFDCF8091D3
:10021000780090917900089561E070E089E090E0C5
:100220000E94A00060E070E08AE090E00E94A000E0
:1002300008951092C50083E38093C4001092C0001B
:1002400088E18093C10086E08093C2000895E0ECCD
:10025000F0E0908195FFFDCF8093C6000895F8945B
:02026000FFCFCE
:00000001FF
