:100000000C9434000C9451000C9451000C94510049
:100010000C9451000C9451000C9451000C9451001C
:100020000C9451000C9451000C9451000C94D40089
:100030000C9451000C9451000C9451000C945100FC
:100040000C9451000C9451000C9451000C945100EC
:100050000C9451000C9451000C9451000C945100DC
:100060000C9451000C94510011241FBECFEFD8E026
:10007000DEBFCDBF11E0A0E0B1E0ECE5F6E002C0EC
:1000800005900D92A030B107D9F721E0A0E0B1E0D2
:1000900001C01D92A332B207E1F70E9416010C9431
:1000A0002C030C9400000F931F93CF93DF938C01CC
:1000B0008091000190910101892B81F0E0E0F1E055
:1000C00021E030E0822FE901A781B0852F5F3F4F0B
:1000D0003796AB2BB9F7853021F415C0C0E0D0E0DE
:1000E00080E0FE01EE0FFF1FEE0FFF1FEE0FFF1F60
:1000F000EC1BFD0BE050FF4F118300837383628381
:10010000558344831682DF91CF911F910F910895FB
:1001100027E0829FC0011124FC01E050FF4F1182B3
:1001200010821382128215821482168280E0089552
:10013000EF92FF921F93CF93DF93C0E0D1E010E0E6
:100140008E81882379F0E881F981309759F00995FB
:100150008E8181508E838C819D81892B19F4812F12
:100160000E9488001F5F2796153051F7DF91CF91CD
:100170001F91FF90EF900895CF93C0E08C2F0E94C5
:100180008800CF5FC530D1F781E792E09093890076
:10019000809388008CE08093810082E080936F00E0
:1001A000CF910895789408951F920F920FB60F92F1
:1001B00011242F933F938F939F93AF93BF93EF930C
:1001C000FF93E0E0F1E023E231E080819181892B2F
:1001D00091F082819381009759F486818F5F8683A5
:1001E00084819581009739F001979383828303C0BE
:1001F0000197938382833796E217F30731F7FF91D4
:10020000EF91BF91AF919F918F913F912F910F905F
:100210000FBE0F901F9018950E9477010E948D01CC
:1002200008950E946E010E948D0108950E9431017F
:100230000E947F010E94BC0048EC50E060E070E04A
:100240008CE091E00E94530048EC50E060E070E0E8
:1002500081E191E00E9453000E94D2000E94980028
:10026000FDCFECE7F0E0808180648083EAE7F0E096
:100270008081876880830895ECE7F0E09081907F2B
:100280008F70892B8083EAE7F0E08081806480832F
:10029000808186FFFDCF809178009091790008954C
:1002A000BC0180E090E00E94310220E030E040EAB2
:1002B00050E40E94BF0220E030E040E85AE30E9490
:1002C000BF0220E030E040E05FE30E94950120E0C3
:1002D00030E048EC52E40E94BF02089580E00E94A2
:1002E0003C010E9450010E940202862F089581E085
:1002F0000E943C0196958795969587950895109252
:10030000C50083E38093C4001092C00088E180930D
:10031000C10086E08093C2000895E0ECF0E0908197
:1003200095FFFDCF8093C60008955058BB27AA279C
:100330000E94AD010C9485020E94770238F00E9461
:100340007E0220F039F49F3F19F426F40C947402D5
:100350000EF4E095E7FB0C946E02E92F0E949602E2
:1003600058F3BA17620773078407950720F079F4EA
:10037000A6F50C94B8020EF4E0950B2EBA2FA02D22
:100380000B01B90190010C01CA01A0011124FF2742
:10039000591B99F0593F50F4503E68F11A16F0403D
:1003A000A22F232F342F4427585FF3CF469537953C
:1003B0002795A795F0405395C9F77EF41F16BA0B01
:1003C000620B730B840BBAF09150A1F0FF0FBB1FAF
:1003D000661F771F881FC2F70EC0BA0F621F731FF8
:1003E000841F48F4879577956795B795F7959E3F55
:1003F00008F0B0CF9395880F08F09927EE0F9795E6
:10040000879508950E949E0288F09F5798F0B92F13
:100410009927B751B0F0E1F0660F771F881F991F39
:100420001AF0BA95C9F714C0B13091F00E94B80221
:10043000B1E008950C94B802672F782F8827B85F31
:1004400039F0B93FCCF3869577956795B395D9F791
:100450003EF490958095709561957F4F8F4F9F4F9B
:100460000895E89409C097FB3EF4909580957095A7
:1004700061957F4F8F4F9F4F9923A9F0F92F96E9F0
:10048000BB279395F695879577956795B795F11165
:10049000F8CFFAF4BB0F11F460FF1BC06F5F7F4F02
:1004A0008F4F9F4F16C0882311F096E911C0772314
:1004B00021F09EE8872F762F05C0662371F096E81D
:1004C000862F70E060E02AF09A95660F771F881FEC
:1004D000DAF7880F9695879597F9089597F99F67AA
:1004E00080E870E060E008959FEF80EC08950024BC
:1004F0000A941616170618060906089500240A9489
:1005000012161306140605060895092E0394000C0E
:1005100011F4882352F0BB0F40F4BF2B11F460FF9D
:1005200004C06F5F7F4F8F4F9F4F089557FD9058C6
:10053000440F551F59F05F3F71F04795880F97FBA7
:10054000991F61F09F3F79F0879508951216130661
:100550001406551FF2CF4695F1DF08C01616170690
:100560001806991FF1CF86957105610508940895C5
:10057000E894BB2766277727CB0197F908950E9457
:10058000D2020C9485020E94770238F00E947E020B
:1005900020F0952311F00C946E020C947402112437
:1005A0000C94B9020E94960270F3959FC1F3950FC7
:1005B00050E0551F629FF001729FBB27F00DB11DE7
:1005C000639FAA27F00DB11DAA1F649F6627B00D77
:1005D000A11D661F829F2227B00DA11D621F739F60
:1005E000B00DA11D621F839FA00D611D221F749F6E
:1005F0003327A00D611D231F849F600D211D822FB5
:10060000762F6A2F11249F5750409AF0F1F08823DB
:100610004AF0EE0FFF1FBB1F661F771F881F915008
:100620005040A9F79E3F510580F00C946E020C9447
:10063000B9025F3FE4F3983ED4F3869577956795CA
:10064000B795F795E7959F5FC1F7FE2B880F911D32
:0C0650009695879597F90895F894FFCFD0
:00000001FF
