S00F000050726F6A6563742E737265633E
S11300000C9434000C9451000C9451000C94510045
S11300100C9451000C9451000C9451000C94510018
S11300200C9451000C9451000C9451000C94D40085
S11300300C9451000C9451000C9451000C945100F8
S11300400C9451000C9451000C9451000C945100E8
S11300500C9451000C9451000C9451000C945100D8
S11300600C9451000C94510011241FBECFEFD8E022
S1130070DEBFCDBF11E0A0E0B1E0E0E9F3E002C0F3
S113008005900D92A030B107D9F721E0A0E0B1E0CE
S113009001C01D92A332B207E1F70E9411010C9432
S11300A0C6010C9400000F931F93CF93DF938C0130
S11300B08091000190910101892B81F0E0E0F1E051
S11300C021E030E0822FE901A781B0852F5F3F4F07
S11300D03796AB2BB9F7853021F415C0C0E0D0E0DA
S11300E080E0FE01EE0FFF1FEE0FFF1FEE0FFF1F5C
S11300F0EC1BFD0BE050FF4F11830083738362837D
S1130100558344831682DF91CF911F910F910895F7
S113011027E0829FC0011124FC01E050FF4F1182AF
S113012010821382128215821482168280E008954E
S1130130EF92FF921F93CF93DF93C0E0D1E010E0E2
S11301408E81882379F0E881F981309759F00995F7
S11301508E8181508E838C819D81892B19F4812F0E
S11301600E9488001F5F2796153051F7DF91CF91C9
S11301701F91FF90EF900895CF93C0E08C2F0E94C1
S11301808800CF5FC530D1F781E792E09093890072
S1130190809388008CE08093810082E080936F00DC
S11301A0CF910895789408951F920F920FB60F92ED
S11301B011242F933F938F939F93AF93BF93EF9308
S11301C0FF93E0E0F1E023E231E080819181892B2B
S11301D091F082819381009759F486818F5F8683A1
S11301E084819581009739F001979383828303C0BA
S11301F00197938382833796E217F30731F7FF91D0
S1130200EF91BF91AF919F918F913F912F910F905B
S11302100FBE0F901F9018950E94A8010E94BE0166
S113022008950E947C010E949B010E94B0010E94DB
S1130230BC0044E650E060E070E08CE091E00E9495
S113024053000E94D2000E9498002FEF83ED90E3A8
S1130250215080409040E1F700C00000F4CF883086
S11302609105ECF4672B71F44AB121E030E0B90157
S113027002C0660F771F8A95E2F7CB01809584232D
S11302808AB908954AB121E030E0B90102C0660F8D
S1130290771F8A95E2F7CB01842B8AB90895672BDF
S11302A0B1F444B187709078992324F40197886F4E
S11302B09F6F019621E030E0B90102C0660F771FFD
S11302C08A95E2F7CB018095842384B9089544B1DB
S11302D087709078992324F40197886F9F6F019613
S11302E021E030E0B90102C0660F771F8A95E2F77A
S11302F0CB01842B84B90895ECE7F0E0808180641D
S11303008083EAE7F0E08081876880830895ECE7E2
S1130310F0E09081907F8F70892B8083EAE7F0E092
S1130320808180648083808186FFFDCF8091780006
S113033090917900089561E070E089E090E00E9476
S11303402F0160E070E08AE090E00E942F010895A0
S113035080E00E94870196958795969587950895E4
S11303601092C50083E38093C4001092C00088E11A
S11303708093C10086E08093C2000895E0ECF0E031
S1130380908195FFFDCF8093C6000895F894FFCF28
S9030000FC
