S015000050726F6A6563742143323232322E737265630C
S11300000C9434000C9451000C9451000C94510045
S11300100C9451000C9451000C9451000C94510018
S11300200C9451000C9451000C9451000C94D40085
S11300300C9451000C9451000C9451000C945100F8
S11300400C9451000C9451000C9451000C945100E8
S11300500C9451000C9451000C9451000C945100D8
S11300600C9451000C94510011241FBECFEFD8E022
S1130070DEBFCDBF11E0A0E0B1E0E8EAF9E002C0E4
S113008005900D92A030B107D9F721E0A0E0B1E0CE
S113009001C01D92A732B207E1F70E9464010C94DB
S11300A0D2040C9400000F931F93CF93DF938C0121
S11300B08091010190910201892B81F0E1E0F1E04E
S11300C021E030E0822FE901A781B0852F5F3F4F07
S11300D03796AB2BB9F7853021F415C0C0E0D0E0DA
S11300E080E0FE01EE0FFF1FEE0FFF1FEE0FFF1F5C
S11300F0EC1BFD0BEF5FFE4F118300837383628360
S1130100558344831682DF91CF911F910F910895F7
S113011027E0829FC0011124FC01EF5FFE4F118292
S113012010821382128215821482168280E008954E
S1130130EF92FF921F93CF93DF93C1E0D1E010E0E1
S11301408E81882379F0E881F981309759F00995F7
S11301508E8181508E838C819D81892B19F4812F0E
S11301600E9488001F5F2796153051F7DF91CF91C9
S11301701F91FF90EF900895CF93C0E08C2F0E94C1
S11301808800CF5FC530D1F781E792E09093890072
S1130190809388008CE08093810082E080936F00DC
S11301A0CF910895789408951F920F920FB60F92ED
S11301B011242F933F938F939F93AF93BF93EF9308
S11301C0FF93E1E0F1E024E231E080819181892B29
S11301D091F082819381009759F486818F5F8683A1
S11301E084819581009739F001979383828303C0BA
S11301F00197938382833796E217F30731F7FF91D0
S1130200EF91BF91AF919F918F913F912F910F905B
S11302100FBE0F901F90189581E090E00E94AC02F1
S11302208093240181E10E94C1022FEF80E792E0D4
S1130230215080409040E1F700C0000080912401EB
S11302400E94C1028FE39CE90197F1F700C000000E
S1130250089582E090E00E94A4028093250182E147
S11302600E94C1022FEF80E792E02150804090402D
S1130270E1F700C00000809125010E94C1028FE3D4
S11302809CE90197F1F700C0000008950E949001D5
S11302908093260183E10E94C1022FEF80E792E060
S11302A0215080409040E1F700C000008091260179
S11302B00E94C1022FEF89EF90E0215080409040CE
S11302C0E1F700C0000008950E945A022FEF83ED69
S11302D090E3215080409040E1F700C000000E946C
S11302E0B3020E94BC0048EC50E060E070E089E298
S11302F091E00E94530048EC50E064E670E08CE02A
S113030091E00E94530044E650E064E170E086E42A
S113031091E00E9453000E94D2000E949800FDCFF9
S1130320CF93DF9360E070E089E090E00E94DE010B
S113033061E070E088E090E00E94DE0160E070E03F
S113034088E090E00E94DE0100C061E070E088E097
S113035090E00E94DE0183E08A95F1F7000060E0FE
S113036070E088E090E00E94DE0189E090E00E9465
S11303702B02892BD1F3C0E0D0E001C0219689E0A3
S113038090E00E942B02892BC9F7BE0175956795F1
S113039075956795072E000C880B990B0E94D9035D
S11303A026E636E646EB50E40E9436030E94A80394
S11303B0862F60930001DF91CF91089588309105D5
S11303C0ECF4672B71F44BB121E030E0B90102C0C9
S11303D0660F771F8A95E2F7CB01809584238BB94A
S11303E008954BB121E030E0B90102C0660F771FD8
S11303F08A95E2F7CB01842B8BB90895672BB1F46E
S113040045B187709078992324F40197886F9F6F82
S1130410019621E030E0B90102C0660F771F8A958A
S1130420E2F7CB018095842385B9089545B187709F
S11304309078992324F40197886F9F6F019621E0A7
S113044030E0B90102C0660F771F8A95E2F7CB014D
S1130450842B85B9089588309105B4F429B1877047
S11304609078992324F40197886F9F6F019641E057
S113047050E0BA0102C0660F771F8A95E2F7CB01FC
S113048030E082239323089523B1877090789923D1
S113049024F40197886F9F6F019641E050E0BA0100
S11304A002C0660F771F8A95E2F7CB0130E0822302
S11304B093230895CF93DF93ECE7F0E010828081DB
S11304C080648083CAE7D0E088818768888380EF6E
S11304D090E00E94C102888190E00E94C102DF91F5
S11304E0CF910895ECE7F0E09081987F8770892B95
S11304F08083EAE7F0E0808180648083808186FFE6
S1130500FDCF80917800909179000895BC0180E03E
S113051090E00E94D70320E030E040EA50E40E94DB
S1130520650420E030E040E85AE30E94650420E0DE
S113053030E040E05FE30E94C90220E030E048EC94
S113054052E40E94650408950E9472020E94860289
S11305500E94A803862F08950E947202969587959B
S11305609695879508951092C50083E38093C400FF
S11305701092C00088E18093C10086E08093C2009D
S11305800895E0ECF0E0908195FFFDCF8093C600E4
S113059008955058BB27AA270E94E1020C942B040B
S11305A00E941D0438F00E94240420F039F49F3F77
S11305B019F426F40C941A040EF4E095E7FB0C9459
S11305C01404E92F0E943C0458F3BA176207730716
S11305D08407950720F079F4A6F50C945E040EF4D4
S11305E0E0950B2EBA2FA02D0B01B90190010C013F
S11305F0CA01A0011124FF27591B99F0593F50F457
S1130600503E68F11A16F040A22F232F342F4427AE
S1130610585FF3CF469537952795A795F0405395A6
S1130620C9F77EF41F16BA0B620B730B840BBAF076
S11306309150A1F0FF0FBB1F661F771F881FC2F7E1
S11306400EC0BA0F621F731F841F48F487957795F5
S11306506795B795F7959E3F08F0B0CF9395880FAF
S113066008F09927EE0F9795879508950E944A03FD
S11306700C942B040E94240458F00E941D0440F0A2
S113068029F45F3F29F00C94140451110C945F0475
S11306900C941A040E943C0468F39923B1F3552383
S11306A091F3951B550BBB27AA2762177307840781
S11306B038F09F5F5F4F220F331F441FAA1FA9F317
S11306C035D00E2E3AF0E0E832D091505040E69505
S11306D0001CCAF72BD0FE2F29D0660F771F881F66
S11306E0BB1F261737074807AB07B0E809F0BB0B59
S11306F0802DBF01FF2793585F4F3AF09E3F51056D
S113070078F00C9414040C945F045F3FE4F3983E77
S1130710D4F3869577956795B795F7959F5FC9F755
S1130720880F911D9695879597F90895E1E0660FD6
S1130730771F881FBB1F621773078407BA0720F04F
S1130740621B730B840BBA0BEE1F88F7E0950895B8
S11307500E94440488F09F5798F0B92F9927B75105
S1130760B0F0E1F0660F771F881F991F1AF0BA9551
S1130770C9F714C0B13091F00E945E04B1E008954D
S11307800C945E04672F782F8827B85F39F0B93F3F
S1130790CCF3869577956795B395D9F73EF4909504
S11307A08095709561957F4F8F4F9F4F0895E89482
S11307B009C097FB3EF490958095709561957F4FA5
S11307C08F4F9F4F9923A9F0F92F96E9BB27939553
S11307D0F695879577956795B795F111F8CFFAF463
S11307E0BB0F11F460FF1BC06F5F7F4F8F4F9F4F94
S11307F016C0882311F096E911C0772321F09EE8F2
S1130800872F762F05C0662371F096E8862F70E057
S113081060E02AF09A95660F771F881FDAF7880F31
S11308209695879597F9089597F99F6780E870E002
S113083060E008959FEF80EC089500240A94161652
S1130840170618060906089500240A9412161306BA
S1130850140605060895092E0394000C11F4882348
S113086052F0BB0F40F4BF2B11F460FF04C06F5F64
S11308707F4F8F4F9F4F089557FD9058440F551F3A
S113088059F05F3F71F04795880F97FB991F61F00E
S11308909F3F79F087950895121613061406551F85
S11308A0F2CF4695F1DF08C0161617061806991FF1
S11308B0F1CF86957105610508940895E894BB27E6
S11308C066277727CB0197F908950E9478040C9442
S11308D02B040E941D0438F00E94240420F0952368
S11308E011F00C9414040C941A0411240C945F0455
S11308F00E943C0470F3959FC1F3950F50E0551F7F
S1130900629FF001729FBB27F00DB11D639FAA2760
S1130910F00DB11DAA1F649F6627B00DA11D661FAF
S1130920829F2227B00DA11D621F739FB00DA11DD0
S1130930621F839FA00D611D221F749F3327A00D8A
S1130940611D231F849F600D211D822F762F6A2F26
S113095011249F5750409AF0F1F088234AF0EE0F8B
S1130960FF1FBB1F661F771F881F91505040A9F7B8
S11309709E3F510580F00C9414040C945F045F3F77
S1130980E4F3983ED4F3869577956795B795F795F4
S1130990E7959F5FC1F7FE2B880F911D969587956C
S10B09A097F90895F894FFCFC4
S9030000FC
