:100000000C9434000C9451000C9469010C94510030
:100010000C9451000C9451000C9451000C9451001C
:100020000C9451000C9451000C9451000C94D40089
:100030000C9451000C9451000C9451000C945100FC
:100040000C9424010C9451000C9451000C94510018
:100050000C9451000C9451000C9451000C945100DC
:100060000C9451000C94510011241FBECFEFD8E026
:10007000DEBFCDBF11E0A0E0B1E0EAE1F6E002C0F2
:1000800005900D92A030B107D9F721E0A0E0B1E0D2
:1000900001C01D92A932B207E1F70E940F010C9432
:1000A0000B030C9400000F931F93CF93DF938C01ED
:1000B0008091060190910701892B81F0E6E0F1E043
:1000C00021E030E0822FE901A781B0852F5F3F4F0B
:1000D0003796AB2BB9F7853021F415C0C0E0D0E0DE
:1000E00080E0FE01EE0FFF1FEE0FFF1FEE0FFF1F60
:1000F000EC1BFD0BEA5FFE4F118300837383628369
:10010000558344831682DF91CF911F910F910895FB
:1001100027E0829FC0011124FC01EA5FFE4F11829B
:1001200010821382128215821482168280E0089552
:10013000EF92FF921F93CF93DF93C6E0D1E010E0E0
:100140008E81882379F0E881F981309759F00995FB
:100150008E8181508E838C819D81892B19F4812F12
:100160000E9488001F5F2796153051F7DF91CF91CD
:100170001F91FF90EF900895CF93C0E08C2F0E94C5
:100180008800CF5FC530D1F781E792E09093890076
:10019000809388008CE08093810082E080936F00E0
:1001A000CF910895789408951F920F920FB60F92F1
:1001B00011242F933F938F939F93AF93BF93EF930C
:1001C000FF93E6E0F1E029E231E080819181892B23
:1001D00091F082819381009759F486818F5F8683A5
:1001E00084819581009739F001979383828303C0BE
:1001F0000197938382833796E217F30731F7FF91D4
:10020000EF91BF91AF919F918F913F912F910F905F
:100210000FBE0F901F9018950E94ED0208950E9446
:1002200061020E946C020E94FD020E94BC0044E632
:1002300050E060E070E08CE091E00E9453000E948A
:10024000D2000E949800FDCF1F920F920FB60F921E
:1002500011242F933F934F935F936F937F938F93CB
:100260009F93AF93BF93EF93FF9384E090E00E943E
:100270003202892B41F41092000110920101109278
:100280000201109203018091000190910101A0915F
:100290000201B0910301892B8A2B8B2B49F08091AD
:1002A000040190910501019690930501809304014A
:1002B000FF91EF91BF91AF919F918F917F916F913E
:1002C0005F914F913F912F910F900FBE0F901F9014
:1002D00018951F920F920FB60F9211248F939F9330
:1002E000AF93BF938091000190910101A091020111
:1002F000B0910301892B8A2B8B2B89F416BC1092A9
:1003000005011092040181E090E0A0E0B0E080934C
:10031000000190930101A0930201B0930301BF91EA
:10032000AF919F918F910F900FBE0F901F901895D6
:1003300088309105ECF4672B71F44AB121E030E08C
:10034000B90102C0660F771F8A95E2F7CB0180954D
:1003500084238AB908954AB121E030E0B90102C08E
:10036000660F771F8A95E2F7CB01842B8AB908952F
:10037000672BB1F444B187709078992324F40197E6
:10038000886F9F6F019621E030E0B90102C0660FCF
:10039000771F8A95E2F7CB018095842384B908956D
:1003A00044B187709078992324F40197886F9F6FE8
:1003B000019621E030E0B90102C0660F771F8A95EF
:1003C000E2F7CB01842B84B9089588309105ECF4D1
:1003D000672B71F44BB121E030E0B90102C0660F28
:1003E000771F8A95E2F7CB01809584238BB9089516
:1003F0004BB121E030E0B90102C0660F771F8A954A
:10040000E2F7CB01842B8BB90895672BB1F445B18A
:1004100087709078992324F40197886F9F6F0196D5
:1004200021E030E0B90102C0660F771F8A95E2F73C
:10043000CB018095842385B9089545B18770907864
:10044000992324F40197886F9F6F019621E030E093
:10045000B90102C0660F771F8A95E2F7CB01842BA2
:1004600085B9089588309105B4F429B187709078E2
:10047000992324F40197886F9F6F019641E050E023
:10048000BA0102C0660F771F8A95E2F7CB0130E010
:1004900082239323089523B187709078992324F4BD
:1004A0000197886F9F6F019641E050E0BA0102C04A
:1004B000660F771F8A95E2F7CB0130E08223932302
:1004C0000895ECE7F0E0808180648083EAE7F0E063
:1004D000808187688083089561E070E08BE090E020
:1004E0000E94980161E070E08CE090E00E94980129
:1004F00061E070E08DE090E00E9498010895CF9354
:100500008230A1F560E070E08BE090E00E94E501B0
:1005100061E070E08CE090E00E94E50160E070E056
:100520008DE090E00E94E501CAE061E070E08DE0BE
:1005300090E00E94E5012FE382E49FE0215080409B
:100540009040E1F700C0000060E070E08DE090E0D6
:100550000E94E5012FE382E49FE02150804090401B
:10056000E1F700C00000C15001F735C0813099F5B6
:1005700060E070E08CE090E00E94E50161E070E0F6
:100580008BE090E00E94E50160E070E08DE090E09B
:100590000E94E501CAE061E070E08DE090E00E9419
:1005A000E5012FE382E49FE0215080409040E1F795
:1005B00000C0000060E070E08DE090E00E94E50186
:1005C0002FE382E49FE0215080409040E1F700C09B
:1005D0000000C15001F7CF91089581E00E947F0291
:1005E0002FE784E89EE1215080409040E1F700C071
:1005F000000082E00E947F0208951092C50083E30C
:100600008093C4001092C00088E18093C10086E00E
:0A0610008093C2000895F894FFCF14
:00000001FF
