S017000070726F6A6563745F61726475696E6F2E73726563C5
S11300000C9434000C9451000C9479010C9451001C
S11300100C9451000C9451000C9451000C94510018
S11300200C9451000C9451000C9451000C94550004
S11300300C9451000C9451000C9451000C945100F8
S11300400C9430010C9451000C9451000C94510008
S11300500C9451000C9451000C9451000C945100D8
S11300600C9451000C94510011241FBECFEFD8E022
S1130070DEBFCDBF11E0A0E0B1E0E6ECF7E002C0E6
S113008005900D92A030B107D9F721E0A0E0B1E0CE
S113009001C01D92AE32B207E1F70E9492000C94A7
S11300A0E1030C940000789408951F920F920FB608
S11300B00F9211242F933F938F939F93AF93BF93EA
S11300C0EF93FF93EAE0F1E02DE231E0808191814A
S11300D0892B91F082819381009759F486818F5FF7
S11300E0868384819581009739F001979383828375
S11300F003C00197938382833796E217F30731F79E
S1130100FF91EF91BF91AF919F918F913F912F916B
S11301100F900FBE0F901F9018950E9416010E9419
S1130120AF0208950E9483020E94BC000E94AF00A7
S11301300E94C4000E948E020E94A1020E945300E9
S11301400E948D002FEF8DEE92E021508040904070
S1130150E1F700C0000081E00E94AF02F1CF61E04E
S113016070E082E090E00E94BA0160E070E084E018
S113017090E00E94BA0108955C9AE99AE9E6F0E0F9
S113018080818860808308951092800085B58160A5
S113019085BD16BCEEE6F0E08081816080837894B2
S11301A0089560E070E082E090E00E94070200C0E1
S11301B061E070E082E090E00E94070283E08A95AB
S11301C0F1F7000060E070E082E090E00E94070236
S11301D008958091080190E0A0E0B0E080930001D0
S11301E090930101A0930201B093030189EF90E081
S11301F00197F1F700C000006091000170910101C6
S113020080910201909103010E94E80226E933E4FF
S11302104BE05DE30E94740320E030E040E05FE3E4
S11302200E9474030E94B702862F089580910901E9
S1130230811113C081E0809309010E94D10083ECF5
S113024099E00197F1F700C000000E94E900809353
S11302502D0185E090E00E94AF0280912D01089568
S11302601F920F920FB60F9211242F933F934F9327
S11302705F936F937F938F939F93AF93BF93EF930A
S1130280FF9384E090E00E945402892B61F4109261
S1130290040110920501109206011092070184E0F6
S11302A090E00E94AF028091040190910501A09119
S11302B00601B0910701892B8A2B8B2B49F0809181
S11302C008018F5F8093080183E090E00E94AF02F1
S11302D0FF91EF91BF91AF919F918F917F916F911A
S11302E05F914F913F912F910F900FBE0F901F90F0
S11302F018951F920F920FB60F9211242F933F93CC
S11303004F935F936F937F938F939F93AF93BF9319
S1130310EF93FF938091040190910501A091060150
S1130320B0910701892B8A2B8B2B99F416BC109260
S1130330080181E090E0A0E0B0E080930401909394
S11303400501A0930601B093070182E090E00E94AA
S1130350AF02FF91EF91BF91AF919F918F917F91E8
S11303606F915F914F913F912F910F900FBE0F901E
S11303701F90189588309105ECF4672B71F44AB1FD
S113038021E030E0B90102C0660F771F8A95E2F7D9
S1130390CB01809584238AB908954AB121E030E0E5
S11303A0B90102C0660F771F8A95E2F7CB01842B4F
S11303B08AB90895672BB1F444B187709078992372
S11303C024F40197886F9F6F019621E030E0B90112
S11303D002C0660F771F8A95E2F7CB0180958423CC
S11303E084B9089544B187709078992324F40197CF
S11303F0886F9F6F019621E030E0B90102C0660F5B
S1130400771F8A95E2F7CB01842B84B9089588304D
S11304109105ECF4672B71F44BB121E030E0B901A4
S113042002C0660F771F8A95E2F7CB01809584237B
S11304308BB908954BB121E030E0B90102C0660FD9
S1130440771F8A95E2F7CB01842B8BB90895672B2C
S1130450B1F445B187709078992324F40197886F9B
S11304609F6F019621E030E0B90102C0660F771F4B
S11304708A95E2F7CB018095842385B9089545B127
S113048087709078992324F40197886F9F6F019661
S113049021E030E0B90102C0660F771F8A95E2F7C8
S11304A0CB01842B85B9089588309105B4F429B122
S11304B087709078992324F40197886F9F6F019631
S11304C041E050E0BA0102C0660F771F8A95E2F757
S11304D0CB0130E082239323089523B18770907871
S11304E0992324F40197886F9F6F019641E050E0AF
S11304F0BA0102C0660F771F8A95E2F7CB0130E09C
S1130500822393230895ECE7F0E080818064808364
S1130510EAE7F0E0808187688083089561E070E015
S11305208BE090E00E94BA0161E070E08CE090E022
S11305300E94BA0161E070E08DE090E00E94BA018F
S113054008951092C50083E38093C4001092C00004
S113055088E18093C10086E08093C2000895E0ECB6
S1130560F0E0908195FFFDCF8093C60008950E942E
S1130570530388F09F5798F0B92F9927B751B0F0DB
S1130580E1F0660F771F881F991F1AF0BA95C9F713
S113059014C0B13091F00E946D03B1E008950C9441
S11305A06D03672F782F8827B85F39F0B93FCCF3F4
S11305B0869577956795B395D9F73EF49095809590
S11305C0709561957F4F8F4F9F4F0895E89409C0B0
S11305D097FB3EF490958095709561957F4F8F4F72
S11305E09F4F9923A9F0F92F96E9BB279395F69588
S11305F0879577956795B795F111F8CFFAF4BB0F06
S113060011F460FF1BC06F5F7F4F8F4F9F4F16C069
S1130610882311F096E911C0772321F09EE8872FF3
S1130620762F05C0662371F096E8862F70E060E0AF
S11306302AF09A95660F771F881FDAF7880F969528
S1130640879597F9089597F99F6780E870E060E0CF
S113065008959FEF80EC089500240A941616170657
S113066018060906089500240A941216130614069F
S113067005060895092E0394000C11F4882352F002
S1130680BB0F40F4BF2B11F460FF04C06F5F7F4FBA
S11306908F4F9F4F089557FD9058440F551F59F0A1
S11306A05F3F71F04795880F97FB991F61F09F3F5B
S11306B079F087950895121613061406551FF2CF84
S11306C04695F1DF08C0161617061806991FF1CFD4
S11306D086957105610508940895E894BB276627FB
S11306E07727CB0197F908950E9487030C943A0366
S11306F00E942C0338F00E94330320F0952311F05C
S11307000C9423030C94290311240C946E030E946B
S11307104B0370F3959FC1F3950F50E0551F629FF3
S1130720F001729FBB27F00DB11D639FAA27F00D46
S1130730B11DAA1F649F6627B00DA11D661F829F6D
S11307402227B00DA11D621F739FB00DA11D621F52
S1130750839FA00D611D221F749F3327A00D611D6F
S1130760231F849F600D211D822F762F6A2F112451
S11307709F5750409AF0F1F088234AF0EE0FFF1F84
S1130780BB1F661F771F881F91505040A9F79E3FDB
S1130790510580F00C9423030C946E035F3FE4F343
S11307A0983ED4F3869577956795B795F795E79531
S11307B09F5FC1F7FE2B880F911D9695879597F93A
S10907C00895F894FFCF38
S9030000FC
