:100000000C9434000C9451000C9472010C94510027
:100010000C9451000C9451000C9451000C9451001C
:100020000C9451000C9451000C9451000C94D40089
:100030000C9451000C9451000C9451000C945100FC
:100040000C943A010C9451000C9451000C94510002
:100050000C9451000C9451000C9451000C945100DC
:100060000C9451000C94510011241FBECFEFD8E026
:10007000DEBFCDBF11E0A0E0B1E0EAEEF3E002C0E8
:1000800005900D92A030B107D9F721E0A0E0B1E0D2
:1000900001C01D92A832B207E1F70E9427010C941B
:1000A000F3010C9400000F931F93CF93DF938C0107
:1000B0008091050190910601892B81F0E5E0F1E046
:1000C00021E030E0822FE901A781B0852F5F3F4F0B
:1000D0003796AB2BB9F7853021F415C0C0E0D0E0DE
:1000E00080E0FE01EE0FFF1FEE0FFF1FEE0FFF1F60
:1000F000EC1BFD0BEB5FFE4F118300837383628368
:10010000558344831682DF91CF911F910F910895FB
:1001100027E0829FC0011124FC01EB5FFE4F11829A
:1001200010821382128215821482168280E0089552
:10013000EF92FF921F93CF93DF93C5E0D1E010E0E1
:100140008E81882379F0E881F981309759F00995FB
:100150008E8181508E838C819D81892B19F4812F12
:100160000E9488001F5F2796153051F7DF91CF91CD
:100170001F91FF90EF900895CF93C0E08C2F0E94C5
:100180008800CF5FC530D1F781E792E09093890076
:10019000809388008CE08093810082E080936F00E0
:1001A000CF910895789408951F920F920FB60F92F1
:1001B00011242F933F938F939F93AF93BF93EF930C
:1001C000FF93E5E0F1E028E231E080819181892B25
:1001D00091F082819381009759F486818F5F8683A5
:1001E00084819581009739F001979383828303C0BE
:1001F0000197938382833796E217F30731F7FF91D4
:10020000EF91BF91AF919F918F913F912F910F905F
:100210000FBE0F901F901895CF930E94D501C82F45
:1002200081E00E94EB012FEF80E792E021508040B7
:100230009040E1F700C000008C2F0E94EB018FE39B
:100240009CE90197F1F700C00000CF9108950E944A
:10025000B3010E94DD010E94BC0048EC50E064E65E
:1002600070E08CE091E00E9453000E94D2000E9456
:100270009800FDCF1F920F920FB60F9211242F936B
:100280003F934F935F936F937F938F939F93AF931E
:10029000BF93EF93FF938091000190910101A09192
:1002A0000201B0910301892B8A2B8B2B49F080919D
:1002B00004018F5F8093040183E090E00E94EB01D2
:1002C00089B1FF91EF91BF91AF919F918F917F91F4
:1002D0006F915F914F913F912F910F900FBE0F90B3
:1002E0001F9018951F920F920FB60F9211242F9303
:1002F0003F934F935F936F937F938F939F93AF93AE
:10030000BF93EF93FF938091000190910101A09121
:100310000201B0910301892B8A2B8B2B99F416BC17
:100320001092040181E090E0A0E0B0E08093000131
:1003300090930101A0930201B093030182E090E049
:100340000E94EB01FF91EF91BF91AF919F918F912F
:100350007F916F915F914F913F912F910F900FBEC1
:100360000F901F901895ECE7F0E010828081806478
:100370008083EAE7F0E08081876880830895ECE776
:10038000F0E090819B7F8770892B8083EAE7F0E023
:10039000808180648083808186FFFDCF9091790089
:1003A00080917800892B90E0089581E00E94BF0140
:1003B000969587959695879508951092C50083E345
:1003C0008093C4001092C00088E18093C10086E051
:1003D0008093C2000895E0ECF0E0908195FFFDCF9E
:0A03E0008093C6000895F894FFCF43
:00000001FF
